:10000000401A0020D5120300D1300000D530000086
:10001000A70A02020002000004180FAC206A0B01BC
:1000200000000000000000000000000000000000D0
:1000300000000000E898030000000000000000003D
:100040000000000000000000FFFFFFFFFFFFFFFFB8
:10005000FFFFFFFFFFFFFFFFFFFFFFFFFFFFFFFFB0
:1000600000E00F000000000000000000FFFFFFFFA5
:10007000FFFFFFFF1C000000000000000000000068
:100080000000000000000000454C0020454C00200E
:10009000401A002080E4030098200300E0100020B4
:0C00A000B4100020000010000000000060
:10020000401A0020D5120300D1300000D530000084
:100210003D8C0000D9300000E1300000D112030015
:10022000D1120300D1120300D1120300D112030036
:10023000E5300000D1120300D1120300D1120300F7
:100240001D4D0000A1750100DD3300005831000094
:10025000656E0100F9750100AD750100C5750100FD
:10026000A57501001D42000009430000B1640000B3
:10027000A5AF000058310000583100004D040000C7
:10028000583100005831000025430000583100006B
:10029000583100005831000058310000583100003A
:1002A000583100005831000058310000583100002A
:1002B000FD750100A9750100B14A00003976010001
:1002C00058310000455F01005831000058310000EE
:1002D00058310000583100005831000058310000FA
:1002E00058310000583100005831000058310000EA
:1002F00058310000583100005831000058310000DA
:0C0300005831000058310000D1120300F9
:10030C00F8B500BFF8BC08BC9E467047F8B500BFF6
:10031C00F8BC08BC9E46704710B5054C237833B921
:10032C00044B13B10448AFF300800123237010BDBC
:10033C006025002000000000FCDC030008B5034B26
:10034C001BB103490348AFF3008008BD0000000057
:10035C0064250020FCDC0300A3F5803A704700BF45
:10036C00174B002B08BF134B9D46FFF7F5FF0021E1
:10037C008B460F461348144A121A31F05BFE0E4B93
:10038C00002B00D098470D4B002B00D09847002035
:10039C00002104000D000D48002802D00C48AFF3DA
:1003AC00008031F0EBFD200029000BF0B9F831F0A2
:1003BC00D1FD00BF0000080000000000000000009C
:1003CC00401A0020BC210020454C002000000000F9
:1003DC000000000006289ABF014B185CFF207047F4
:1003EC009F20030006289ABF014B185CFF20704722
:1003FC009820030070B5104D05EB81040246A678D9
:10040C003009FFF7E7FF107106F00F00FFF7EAFF66
:10041C005071FF3815F82130537018BF01206378E4
:10042C00E070064C907193701146204606F0BAF8B5
:10043C000123A36070BD00BFA6490020002000402E
:10044C001FB50023CDE90133204A214C0393FF2330
:10045C008DF809302378516C906B0140C907DBB2E1
:10046C002AD5022B28D81B49906C01EB830182B250
:10047C00C97819B110F4004F18BF0022164917485B
:10048C0021F813201649012202FA03F30A781343C8
:10049C000B700378B3B100230278DA40D207D9B2DB
:1004AC000CD521700278012404FA03F35340DBB21B
:1004BC00037001A8FFF79EFF04B010BD0133032B9E
:1004CC00EAD1F9E703232370F6E700BF00200040D0
:1004DC00B2490020A649002088300020B3490020F2
:1004EC00B449002007B5012308226946002000F01A
:1004FC00C9FC4FF6FD71684600F0CAF8FF280246A9
:10050C0006D1064901200EF02FFC03B05DF804FB68
:10051C00034901200EF028FCF7E700BFA6200300DA
:10052C00C220030007B5012308226946002000F011
:10053C00A9FC684600F012F930B9044901200EF00C
:10054C0013FC03B05DF804FB0149F7E7DF2003005F
:10055C00ED20030007B5012308226946002000F0B6
:10056C0091FC684600F076F8FF28024606D1064951
:10057C0001200EF0F9FB03B05DF804FB03490120E8
:10058C000EF0F2FBF7E700BF02210300122103007B
:10059C002DE9F7431C49DFF87880DFF878900220CA
:1005AC000EF0E2FB002634464FF6FF770CF0ACF869
:1005BC00F5B2A8420AD80CF0A7F814490346224613
:1005CC00022003B0BDE8F0430EF0CEBB284626F067
:1005DC00CFFBB842034615D02A46414602200EF006
:1005EC00E1FB2846694626F0ABFB01340220E4B25D
:1005FC000EF0A6FB10B168460EF028FB494602200F
:10060C000EF0B2FB0136D1E72F2103004821030085
:10061C003D210300A422030037B5002000F0FCFBB1
:10062C000446022000F0F8FBE4B2054669460120BE
:10063C0000F04BFCAAB26946204600F05BF8044976
:10064C000346224602200EF08FFB03B030BD00BFE4
:10065C005F210300F7B5054698B100264FF6FF77EA
:10066C00F4B2204626F084FBB84209D069462046F5
:10067C0026F066FB08226946284631F0A3FC08B137
:10068C001EB1FF24204603B0F0BD0126E8E70000B0
:10069C002DE9F34106460F4600254FF6FF78ECB2E4
:1006AC00204626F065FB404511D06946204626F0D1
:1006BC0047FB08226946304631F084FC58B125B11D
:1006CC00FF24204602B0BDE8F0810125E7E7314662
:1006DC00204626F077FC4FF6FD739F4203D0394637
:1006EC00204626F0FBFA024A535D01335355E8E7E6
:1006FC00B74900200128F8B50546164612D80B4F0D
:10070C003B5C8BB926F05EFC044638B94FF6FD73A2
:10071C009E4203D03146284626F0E0FA01237B5551
:10072C002046F8BD6A24FBE77624F9E7B749002098
:10073C00012808B50ED8084A135C2BB94FF6FF7187
:10074C0026F0CCFA002008BD013BDBB21354002B81
:10075C00F8D1F3E76A20F6E7B749002008B5FFF7B0
:10076C0079FFBDE80840FFF7E3BF01207047012087
:10077C007047012070470000014B00221A7070472F
:10078C00C82A002008B5134B00221A70124B197896
:10079C0011B11A7000F0B9F9104B1A78032A0ED85F
:1007AC00DFE802F0020E100201220D481A704FF41D
:1007BC007A711CF07FF830F085FE0A4B188008BD6A
:1007CC0002221A70064B00221A70BDE8084000F095
:1007DC009DB900BFC82A00204C210020874A002068
:1007EC00A82A0020B230002013B530F06BFE134B5A
:1007FC00134A1B88C01A00231370124A1370124B31
:10080C001A78012A80B205D0012201901A7000F0EA
:10081C007BF901980D4CB0F57A7F09D32178B1FAA8
:10082C0081F1490900F0C6FF0323237002B010BD0B
:10083C0000F0DAFF06481CF031F8F5E7B230002082
:10084C00B02A0020A82A00204C210020874A002032
:10085C00C82A002008B5134B00221A70124B1978C5
:10086C0011B11A7000F054F9104B1A78032A0ED8F3
:10087C00DFE802F0020E100201220D481A704FF44C
:10088C007A711CF017F830F01DFE0A4B188008BD69
:10089C0002221A700648FA211CF00CF8BDE8084038
:1008AC0000F038B9C82A00204D210020894A0020C8
:1008BC00B82A0020B430002013B530F003FE134BDF
:1008CC00134A1B88C01A00231370124A1370124B60
:1008DC001A78012A80B205D0012201901A7000F01A
:1008EC0016F901980D4CB0F57A7F09D32178B1FA3D
:1008FC0081F1490900F050FF0323237002B010BDB1
:10090C0000F007F906481BF0C9FFF5E7B4300020EA
:10091C00C02A0020B82A00204D210020894A00203E
:10092C00C82A00200E280BD10C4B01291B7803D1AF
:10093C0023B90B481BF0B2BF002BFAD10948F9E7D9
:10094C000F280AD1084B01291B7802D11BB9074883
:10095C00F0E7002BFBD10648ECE77047864A0020F5
:10096C00A82A0020B02A0020884A0020B82A00209B
:10097C00C02A002008B5C37B1BB9C37C1BB1012B5B
:10098C000FD0812008BD017D82898B1C9A420BD32C
:10099C0080680DF04BFD09F091F80028F1D0002093
:1009AC00F0E709F0A5F8F8E78020EBE708B5C37B82
:1009BC001BB9C37C1BB1012B07D0812008BD00F0F3
:1009CC0043FF0028F9D00020F8E700F023FFF8E7F8
:1009DC00C37B10B56BB9C47C5CB9037D81899A1C4F
:1009EC00914209D38268591CD05C515C08F0A8FE76
:1009FC0000B98124204610BD8024FBE708B5C37CD8
:100A0C00012B09D8037D81895A1C914206D3826837
:100A1C00D05C00F027FF18B9812008BD8020FCE7CE
:100A2C000020FAE710B5437D012B044616D0637DF8
:100A3C00E3B92368228A598858790CF0E6F9A8B1F1
:100A4C0023685B88062B1FD012D8012B26D9032BC9
:100A5C000CD12046BDE81040FFF78CBF0368028A1A
:100A6C00598858790CF0DAF90028E0D0C32010BD71
:100A7C00B3F5A06F0DD04FF699529342F6D12046A4
:100A8C00BDE81040FFF7BABF2046BDE81040FFF7A5
:100A9C008DBF2046BDE81040FFF79ABF8120E6E7E6
:100AAC007047012070470120704701207047B52026
:100ABC007047704700207047002070470020704737
:100ACC0000207047002070470020704700207047BE
:100ADC00002070470120704701207047B5207047F7
:100AEC00002070470020704700207047002070479E
:100AFC00704700207047B520704770477047002042
:100B0C007047842070477047704770477047704734
:100B1C007047704770477047704770477047704711
:100B2C000120704770B50C460C491E46031E154635
:100B3C004FF001000A4A08BF0A460A490EF014F9A0
:100B4C003246094901200EF00FF92B46224607497F
:100B5C00BDE8704001200EF007B900BF74210300FE
:100B6C002AA8030081210300A7210300BD21030053
:100B7C0000207047034B1B681878012808BF02201F
:100B8C00704700BF98280020704700207047002055
:100B9C0070470020704700207047002070470020ED
:100BAC007047002070470020704700207047704746
:100BBC00B520704700207047002070477047002018
:100BCC0070477047704770477047704700207047F8
:100BDC0000207047B5207047704770477047002061
:100BEC00704770477047704770470000094A0023F0
:100BFC00FF21137082F8783082F8653082F87730F4
:100C0C0082F8793082F87A1082F87B30024A1360CD
:100C1C00704700BF924A0020F82A0020044B184469
:100C2C0090F8663090F86500181AC0B2704700BF93
:100C3C00924A0020F8B5214C94F87B201044C2B2A3
:100C4C0010462244FFF7EAFF1D4B92F865501E78C0
:100C5C004FF0000C0746254460465FFA8CF2974231
:100C6C0024D96B7811B10AB92D2B17D0782B21D040
:100C7C00582B05D108B137220AE0013A012A16D9BE
:100C8C00602B19D8402BF6D83A2B34BF30220022D7
:100C9C009B1ADBB29E4205D900FB06300CF1010C0D
:100CAC000135DAE7052384F879300020F8BD1026E9
:100CBC000020F3E70028E0D05722E9E7924A002011
:100CCC00732100202DE9F0470D468F680A683A49D8
:100CDC000446202003F028F86B68ABB93749202074
:100CEC0003F022F8202009F01FFFEA681AB13449FA
:100CFC00202003F019F83349202003F029F8BDE82F
:100D0C00F047202009F010BF002CEBD0EB681BB192
:100D1C002D49202003F008F8DFF8D880DFF8D890B0
:100D2C00DFF8D8A0013F002617F8014F24B9254958
:100D3C00202003F00DF8D5E72B691BB1414620208C
:100D4C0002F0F2FF752C24D0762C24D0772C24D0F2
:100D5C00732C24D0722C24D0712C24D0622C24D04F
:100D6C006E2C24D02A2C24D01849194B212C18BFB6
:100D7C001946202002F0D8FF212CD5D02B692BB19D
:100D8C0053F826201349202002F0CEFF0136F6B28C
:100D9C00CAE74946EDE75146EBE70F49E9E70F494A
:100DAC00E7E70F49E5E70F49E3E70F49E1E70F49AB
:100DBC00DFE70F49DDE700BF2A9B0300892B030007
:100DCC005F220300A42203004F220300032203002E
:100DDC004C2203005922030035220300EC210300AE
:100DEC0041220300E1210300F6210300882B0300BC
:100DFC0000220300C4B503001E22030029220300B5
:100E0C00FFF7F4BE034B93F8770093F87B30C01ACE
:100E1C00C0B27047924A00200021FFF70BBF0000C0
:100E2C0010B50A4B93F87B20024453FA82F292F8E5
:100E3C00652013445C78A4F12D0359425941FFF706
:100E4C00F9FE2D2C08BF404210BD00BF924A002075
:100E5C0038B50A4D95F87B20C4430244D2B2E40F56
:100E6C0021B11046FFF7DAFE001B087045FA82F23A
:100E7C0092F8650004440248204438BD924A002090
:100E8C00934A00202DE9F3410E460DF1070115465A
:100E9C001C46FFF7DDFF9DF80730AB4288BF8DF88D
:100EAC0007509DF8077080460CB1EC1BE4B222464B
:100EBC000021304631F0BEF83A464146301931F047
:100ECC009FF8384602B0BDE8F08138B508220C46D0
:100EDC000123FFF7D7FF04F10803621E043413F853
:100EEC00011D12F8015F1D70A3421170F7D138BDBE
:100EFC0038B5014605460120FFF7E4FED5E901436C
:100F0C006CB91C46084D236863B12946202002F0B9
:100F1C000BFF21460020FFF7D5FE1434F3E71B78B6
:100F2C006E2BEFD038BD00BFC4B5030008B5044923
:100F3C00202002F0F9FEBDE80840202009F0F4BDA5
:100F4C006522030010B5FFF7F1FF054C236803B9C8
:100F5C0010BD21460020FFF7B5FE1434F6E700BFA4
:100F6C00587603001E4B1F4953F820202DE9F047FB
:100F7C001D4E202002F0D8FE33681BB9BDE8F047A7
:100F8C00FFF7E0BFFFF7D2FF184DDFF868800024B1
:100F9C0095F87B30E7B2013B9F4204DB3068BDE83B
:100FAC00F047FFF7A5BF45FA84F34FF0000A93F81A
:100FBC006590A9443846FFF731FE5FFA8AF3834205
:100FCC0005D30B49202002F0AFFE0134E0E74B447F
:100FDC0041465A78202002F0A7FE0AF1010AE9E7FF
:100FEC00541D0020A5220300F82A0020924A00205C
:100FFC00C5B5030048BA03002DE9F84F824C94F8AC
:10100C007730002B00F09680804B1B7813F0010F8B
:10101C0004F101081BD07E4E0025E8B2FFF7FEFD5F
:10102C0044FA85F3024693F865102020414409F0F8
:10103C0076FD3146202002F077FE013594F87720BA
:10104C00EBB29A42E9D87349202002F06DFE94F875
:10105C0077A0714A002644FA86F3304693F86590DF
:10106C00FFF7DCFD4FF0000CC14465461768002FFC
:10107C0050D0013FCE4618E023B9002D47D115467C
:10108C001432F3E71EF8011BA1F1410BBBF1190F50
:10109C0098BF2031A3F1410B98BFC9B2BBF1190F16
:1010AC009CBF2033DBB28B42EAD1AEEB090181420B
:1010BC0017F8013FE0D1002BDFD11546574B1D60CF
:1010CC0094F87B30013384F87B30D5E9013201365A
:1010DC00F6B2A3B312786E2A30D03F2A23D04FF049
:1010EC000009C8464FF0050B072394F87710AA683F
:1010FC00B14212F8087029D8AFB1424453782A2B68
:10110C0011D0212F1CBF032384F879300BE04FF052
:10111C00010CB5E7BCF1000F01D1002DCED102239B
:10112C0084F87930002594F87900002868D1686833
:10113C000CF086FEBDE8F84FFFF758BD1A46B245D5
:10114C0089D8032384F879301546ECE7622F30D028
:10115C0006D8002F52D0212F3AD084F8793037E0BE
:10116C00732F15D8702FF8D9732F1FD0722F47F605
:10117C00FF7A18BF4FF0FF3A01214846FFF75AFD9E
:10118C0050454FF0070323D9042284F879201FE03F
:10119C00A7F17502022AE0D8752F04D0762FE3D17F
:1011AC004FF6FF7AE8E74FF0FF0AE5E74FF07F0ACA
:1011BC00E2E794F87B204A4454FA82F292F86520D4
:1011CC0022445278222A03D07B2A01D084F879B0A9
:1011DC00AA68424452782A2A94F879201CBF08F154
:1011EC0001085FFA88F8002A9DD1212F1FBF013614
:1011FC0009F10109F6B25FFA89F976E70322C4E72F
:10120C00FFF7B0FE96E700BF924A0020504B00203B
:10121C00C5B50300A222030058760300F82A00206B
:10122C002DE9F3415E4C5F4F06460D464FF000082A
:10123C0066B90DF10701284609F06AFC78B1262839
:10124C0000F0AA80012384F879304BE0002D00F0E7
:10125C00A38016F8013B8DF80730013DEDB23A78CA
:10126C009DF807303B700D2A01D10A2BE0D00D2BD5
:10127C000CD0A3F10A025142514122788846042A2B
:10128C00D6D8DFE802F0051D263C31000121F4E739
:10129C0021B1FFF7B1FE4FF00108C9E7202B64D054
:1012AC00222B07D10223237094F87820642A5ED174
:1012BC000623C8E77B2B01D10323F4E70123F2E7D4
:1012CC0009B9202BF0D194F87730112B40D103239E
:1012DC00B9E7222BF7D00029E6D0052384F8793022
:1012EC004FF0010804232370B8F1000FA0D094F83C
:1012FC00790008B1FFF736FEFFF778FC98E77D2BF5
:10130C0094F87A0003D1FF28DDD005239BE7602BEE
:10131C0013D8402B13D83A2B34BF302200229A1A00
:10132C00D2B20F2A10D8FF280BD002EB0012FF23E9
:10133C008DF8072084F87A30B6E75722EFE737228A
:10134C00EDE784F87A2073E7202B3FF471AFDCE7EC
:10135C000133DBB284F87730234494F8782083F897
:10136C00652000232370002993D1884660E72378F9
:10137C00012B09D19DF80730A3F1410119299CBF1C
:10138C002033DBB28DF80730A3189DF80710597085
:10139C00013284F878204BE7404602B0BDE8F0817A
:1013AC00924A0020BF4B002049BA89B24840C0F392
:1013BC0003134340180380B258405B0103F4FF53FE
:1013CC005840704719F0C8BC38B5A0F14303044627
:1013DC000A2B32D8DFE803F0060A0A121231313137
:1013EC0031311100BDE8384016F0D8BF16F09EFF21
:1013FC0020B116F0D3FF0028FBD138BD124D287850
:10140C000028FAD101232B700AF01AF8462C11D0BF
:10141C0007D8443C012C0AD90C487A2101F034FA43
:10142C0005E0472CF8D140F6010030F00BF8002312
:10143C002B70E2E740F60200F7E7BDE838400348BE
:10144C008C2101F021BA00BFC34B002019230300EB
:10145C0070477047704770477047704770477047C8
:10146C00704770477047704770477047002070474F
:10147C0070477047002070477047704700207047D6
:10148C00002070477047704770477047704770472F
:10149C00704770472DE9F047204EDFF8A090DFF839
:1014AC00A0A000245FFA84F840461AF079FCFF28CB
:1014BC0005460CD11A493078224602F049FC3078A6
:1014CC00013409F031FB152CECD1BDE8F087154B3C
:1014DC0059F82420144947B233EA270328BF53464E
:1014EC00307802F035FC002FE9DA14B1B8F1030FB3
:1014FC0008D10E4B0E49307815F0010F08BF194674
:10150C0002F026FC0A2CDAD10A4B0B49307815F084
:10151C00010F08BF194602F01BFCD0E7B4210020D4
:10152C00E7230300A3B603000F240300C02303002A
:10153C00AA230300DC230300D2230300102503009D
:10154C00A422030082B2074B42B11A80000C064B56
:10155C000ABF4FF6CE2218801A8070474BF6EF6206
:10156C00F3E700BF36210020382100200B4BB3F9E4
:10157C0000201888002AB8BF80F0620042001A8050
:10158C00074AB2F9001013880029BCBF83F48053BA
:10159C0083F00B035900118058407047362100200E
:1015AC0038210020034B1870034B1970034B002299
:1015BC001A707047B6490020B5490020B84B00207E
:1015CC002DE9F74FDFF8989099F8003006460F4652
:1015DC00002B41D04FF6FB7398423DD8DFF8848046
:1015EC00DFF884A098F8004000259AF8000050FA23
:1015FC0085F06946C0B225F0A3FB0822394668463F
:10160C005FFA85FB30F0DEFCF8B95C4698F80030E8
:10161C00A3420AD199F80020631CDBB29A4288F8E5
:10162C00003004BF002388F800309AF800301C44C6
:10163C00E4B23946204625F0C5FC68B9314620464F
:10164C0003B0BDE8F04F25F049BB99F800200135F7
:10165C00EBB29A42C9D8D9E703B0BDE8F08F00BF0E
:10166C00B5490020B84B0020B649002001230422C4
:10167C000921002006F02ABA70B5064E0446002552
:10168C00A54200D170BD00BF304606F0B2FE013558
:10169C00F6E700BF0020054038B51C4D0446D0B11C
:1016AC00012304220E21092006F010FA0123042242
:1016BC000C21032006F00AFA01230422032108203E
:1016CC0006F004FA012304220821002006F0FEF99A
:1016DC0001232B7038BD034604220E21092006F08D
:1016EC00F5F9234604220C21032006F0EFF92346DA
:1016FC0004220321082006F0E9F9234604220821DC
:10170C00204606F0E3F92C70E4E700BFBD4B002047
:10171C00034600B1012305210422084606F0D6B980
:10172C00034608B1FFF7A2BF0422092106F0CEB987
:10173C00174A08B5D2E90031013341F10001C2E981
:10174C000031144BD3F89833C3B90123042203217D
:10175C00082006F0BBF9012304220E21092006F013
:10176C00B5F904220B210123032006F0AFF9012265
:10177C001146BDE80840104608F046B804220B217B
:10178C000023032006F0A2F901220021F1E700BF9B
:10179C00582500200000144208B50AF09BFD0228D1
:1017AC0004D1BDE80840012006F0FABEBDE80840AF
:1017BC0008F0B8BF08B50A4B1B7823B9BDE8084040
:1017CC000120FFF769BFFFF751FF0648FFF754FFF1
:1017DC000020FFF761FFBDE808400020FFF7A0BF25
:1017EC00BD4B002080841E0010B5094B1C784CB9F1
:1017FC000120FFF751FF01222146BDE810401046A1
:10180C0008F002B80020FFF747FF01221146F4E769
:10181C00BD4B002008B50020FFF73EFF0948FFF73D
:10182C002BFFFFF723FF0748FFF726FF0020FFF7EA
:10183C0077FF44F62060FFF71FFF0120FFF72CFF16
:10184C00002008BD80841E0008B50020FFF724FF8F
:10185C000348FFF711FF0120FFF71EFF002008BD12
:10186C0080841E0010B50446C820FFF705FF2046F3
:10187C00FFF74EFF002010BD08B50A4B2022C3F81D
:10188C00FC200020FFF74CFF0020FFF705FF002392
:10189C0018460122062106F019F9034B0020187096
:1018AC0008BD00BF00A00044104C0020024B18786B
:1018BC0000F07F00704700BF434C0020034B1878AA
:1018CC000130C0B2187000F07F007047434C00200C
:1018DC001FB5030A8DF80E300323009303AB8DF86C
:1018EC000D0000F0CDF905B05DF804FB1FB5030A3F
:1018FC008DF80F1004218DF80E30009103AB8DF88C
:10190C000D0000F0BDF905B05DF804FBF0B589B031
:10191C001768BDF838509DF83C60CDF809708DF80B
:10192C0012505768DDF840C0BDF84440CDF80D703A
:10193C002D0A012E8DF811308DF813508DF814608E
:10194C0016D0032E1BD1DCF80030CDF81530DCF8A6
:10195C000430CDF819309DF848308DF81D30162321
:10196C000093BDF84C2002AB00F08AF909B0F0BD31
:10197C008DF81540240A8DF816400F23F0E701204E
:10198C00F4E71FB50446084611461A4602238DF8A3
:10199C000D100093214603AB00F072F904B010BD9A
:1019AC0010B586B014461A460B68CDF80D304B684E
:1019BC00CDF811300A230093342103AB8DF8154078
:1019CC0000F05EF906B010BD30B585B00024ADF85E
:1019DC000A20021D92B2012A1D46ADF80840ADF84E
:1019EC000610ADF8044003D94FF6FF72904207D1B0
:1019FC00064A2B46127801A923F0F8F905B030BD40
:101A0C00014601AA204623F0B7FAF7E7BB210020D4
:101A1C002DE9F04F2DED028B87B00C4600901D4642
:101A2C0017464AB310461BF069FBC0F3470A2DB3A7
:101A3C0028461BF063FBC0F34708FFF73FFF009BF2
:101A4C008DF810008DF811308DF813401B0A240A04
:101A5C000022062104A88DF812308DF814408DF860
:101A6C0015A01BF047FCADF80E0048B9182007B0C4
:101A7C00BDEC028BBDE8F08F9246D8E7A846DCE7B8
:101A8C004FEA4A01C9B201F1060B07315FFA81F93D
:101A9C0001EB48015FFA8BF3C9B20DF10E0008EEB1
:101AAC00103A1BF01EFE04460028DFD183460626A2
:101ABC005FFA8BF18A45BDF80E3011D818EE101A6A
:101ACC00424618461BF082FEE6B2B045BDF80E3019
:101ADC0027D8BDF8482000980621FFF775FFC6E708
:101AEC00490001F0FE01384601931BF05BFE019B9F
:101AFC000246314618461BF069FE711FBDF80E30C8
:101B0C000193C9B238461BF04DFE019B711C024675
:101B1C00C9B2184602361BF059FE0BF1010BF6B296
:101B2C00C6E77600F6B23146284601931BF03AFE22
:101B3C00019B0246494618461BF048FE711CC9B26F
:101B4C002846BDF80E701BF02DFE09F1010102466E
:101B5C00C9B2384609F102091BF038FE01345FFAAC
:101B6C0089F9B1E7F0B589B00E4602A905460AF02D
:101B7C0069FC00287ED0FFF7A1FE8DF810001AF04A
:101B8C00D1FA8DF811001AF0CDFA3C4A8DF81B50A1
:101B9C001368CDF813305368CDF81730BDF8083002
:101BAC008DF81C30000A1B0A8DF812008DF81D30C0
:101BBC0000229DF80D308DF81E300F2104A81BF06B
:101BCC0099FBADF80600002856D000279DF80D3083
:101BDC00FAB2934216D801231A460DF10E010DF1FB
:101BEC0006001BF0C3FB00279DF80E30FAB293429F
:101BFC0024D8BDF80630324620210020FFF7E4FE41
:101C0C0009B0F0BD002128460AF048FC01231A4611
:101C1C0004468DF805000DF105010DF106001BF0D1
:101C2C00A5FB0123240A1A460DF105010DF106004E
:101C3C008DF8054001371BF099FBC7E701212846B9
:101C4C000AF02CFC01231A4604468DF805000DF110
:101C5C0005010DF106001BF089FB0123240A1A462D
:101C6C000DF105010DF106008DF8054001371BF053
:101C7C007DFBB9E7A320C3E71820C1E7394B00204F
:101C8C00F7B50E469DF8201001911C4617460546E7
:101C9C00FFF714FE01992070002220461BF02AFB4E
:101CAC00034638B13A463146284603B0BDE8F04009
:101CBC00FFF78ABE182003B0F0BD08B5FEF71DFF74
:101CCC00BDE808400EF03CB908B5FFF731FD0EF049
:101CDC0061F907F005FCBDE8084007F075BF08B5D1
:101CEC00FEF70CFF06F087FCBDE8084008F02CBAA4
:101CFC00FEF74FBFFEF753BF0020704738B50446C0
:101D0C000D46FEF76EFF29462046BDE8384009F027
:101D1C006BBCFEF746BFFEF752BF00224FF4A0612A
:101D2C0009200EF0F1BD01224FF4A06109200EF044
:101D3C00EBBD0122002109200EF0E6BD2DE9F74F85
:101D4C00DFF8849006460D4614461F4603F10C0A34
:101D5C004FF0010B15B903B0BDE8F08F102DA8465C
:101D6C00184B28BF4FF010085FFA88F13A4652F82A
:101D7C00040B43F8040B5245F9D101919AF8002059
:101D8C001A70114889F80F40002389F800B089F8BF
:101D9C000E30013425F0B4F90B480199E4B2324607
:101DAC0012F801CB10F8013B83EA0C0302F8013C5A
:101DBC00931BDBB29942F3D8A5EB0805ADB21646DE
:101DCC00C8E700BF654B0020644B00202DE9F74F9E
:101DDC0016460193BDF830900D9B344A00930F4684
:101DEC008046034600F10C0153F8040B42F8040B37
:101DFC008B42F9D12E4C1B7813704923237020464B
:101E0C004FEA1923A37384F80F9025F079F92378FE
:101E1C0083EA1623237063784FF0020A73406370D1
:101E2C0052464FF0000B1BE0C2F11005A6EB0B0362
:101E3C009BB2ADB29D4228BF1D4600231FFA83FC06
:101E4C00D018AC45C0B21BD32A44D2B2AB44102A32
:101E5C002F441FFA8BFB03D1204625F051F90022A9
:101E6C00B345E1D312B1204625F04AF9BAF1010F7E
:101E7C004FF000020ED0019F4FF0010A4E46D0E702
:101E8C0017F803C014F800E08CEA0E0C04F800C03C
:101E9C000133D3E70099236800980B604346042173
:101EAC0003B0BDE8F04FFFF749BF00BF654B002002
:101EBC00644B0020F7B5099FBDF82050CDE90057C1
:101ECC0006461C46FFF782FF2DB1334601222946F8
:101EDC002046FFF733FF002003B0F0BD2DE9F74398
:101EEC00BDF82890DFF83C801D4604460E46174688
:101EFC000346494628460122FFF720FF2B463A4667
:101F0C0031462046CDE90098FFF760FF0B9804227C
:101F1C00414630F057F8002814BF7E20002003B053
:101F2C00BDE8F0838C4A002073B51C46044D8B1819
:101F3C001E592E60CDE90045FFF7D0FF02B070BDF1
:101F4C000C4C002000207047002070470020704788
:101F5C00704770472DE9F3410C4E0D4DDFF838807A
:101F6C000C4F002456F8043B0BB9D8F8003035F868
:101F7C00022B009239462246012001340CF0F4FE6B
:101F8C00292CEFD102B0BDE8F08100BF5020002019
:101F9C0038450020C88203000421002008B5FFF753
:101FAC00D9FFBDE8084000F0F7B8000007B50020E5
:101FBC00FEF732FFC2B2282A0DD8084B53F8223054
:101FCC000BB9074B1B68074931F81210009101201F
:101FDC0005490CF0C9FE03B05DF804FB502000204D
:101FEC000421002038450020C8820300FFF7B2BF4F
:101FFC007047000038B50020FEF70EFF04460120A4
:10200C00FEF70AFF0549054601200CF0ADFEA9B20A
:10201C00E0B2BDE8384000F0D7B800BFD38203006F
:10202C002DE9F3410C4E0D4DDFF838800C4F002498
:10203C0056F8043B0BB9D8F8003035F8022B009257
:10204C0039462246012001340CF08EFE292CEFD1AA
:10205C0002B0BDE8F08100BF502000208A4500206E
:10206C00C882030004210020F7B502AB03E9060087
:10207C000446174619F0D8FC0646204619F0E4FC35
:10208C009DF800508EB1202C0FD83B78012B33D803
:10209C0003EB4313394923444FF6FF7031F81320F7
:1020AC00824202D0013221F81320354B354E33F8E1
:1020BC00140036F814104FF6FF7290421CBF421CED
:1020CC0023F8142004F0FD02092A2DD19A8AB68A2D
:1020DC002A44B242B4BF9A829E8233F814308B42A7
:1020EC002DD2294B002513F8012B94422DD001350C
:1020FC00112DF8D103B0F0BD022BD6D11F4B33F804
:10210C0014104FF6FF72914204F121021CBF0131F1
:10211C0023F8141033F812104FF6FF7081421CBFD5
:10212C00013123F81210C0E71D2CD6D15A8F561945
:10213C008E4203DA013A2A445A87CEE759878842FD
:10214C00CFD22046FEF7E7FCCBE716F0AAFB0F4BED
:10215C001B788342044603D80D48DD2100F094FB24
:10216C0004EB04140B4A2C444FF6FF7132F8143074
:10217C008B42BFD0013322F81430BBE7DC45002082
:10218C00384500208A450020588603009021002005
:10219C00BB850300604600200248522200212FF02C
:1021AC0049BF00BF3845002002485222FF212FF0C2
:1021BC0041BF00BF8A45002008B5FFF7EDFFBDE821
:1021CC000840FFF7F1BF0000014B23F810107047D7
:1021DC008A45002010B5104C1049A16103232166DB
:1021EC000F491022C4E904330E4BE361C4E9191200
:1021FC0000230D49A362E01D6362E3622367E3667B
:10220C00636722622FF028FF084920462FF024FF35
:10221C002023A37110BD00BF002400206986030099
:10222C0085490020954900207286030076860300BC
:10223C002DE9F84FDFF87C8098F80030824689460B
:10224C0016460BB9FFF7C6FF182707FB0A873D6F29
:10225C00D7F86CB05D452BD9BC6E796E641BB4425B
:10226C0028BF34462944484622462FF0BBFEBB6E9D
:10227C002544A144361BAB4208BF0025ABEB05023D
:10228C00964228BF164656B1182303FB0A833246E2
:10229C00596E484629442FF0A5FE3444354424B1E8
:1022AC00182000FB0A88C8F870502046BDE8F88F4B
:1022BC000024E3E70024002037B50446CDE90021D3
:1022CC0004F0A1FEDDE9002105462046FFF7B0FF32
:1022DC000446284604F09DFE204603B030BD0000A5
:1022EC002DE9F843134C1E46237881468846174641
:1022FC000BB9FFF76FFF04F086FE61690D4A0025EC
:10230C00536E3BB10135A94202F11802F8DC4FF0D3
:10231C00FF350AE0A942FADD182202FB0544C4E9A4
:10232C001898A7662367E366666704F072FE284672
:10233C00BDE8F88300240020FFF74CBF012270B5E4
:10234C001146042004F0AAFC1C4B1D4DD3F8F020C0
:10235C001C4842F00102C3F8F020D3F8FC204FF0E7
:10236C00604442F08072C3F8FC20174BC4F8B03FB5
:10237C0000260223C4F8006EC4F8806EC5F8F03055
:10238C0004F038FB00F5D520104B114A00F2FC404C
:10239C00B0FBF3F00F4B01382861C4F8406E1A60A3
:1023AC000D4BC4F8803E4FF48073C5F80433D4F859
:1023BC00003E43F48073C4F8003E70BD00ED00E0B5
:1023CC00000004E006000E0055CEACC5F8590D0017
:1023DC00FF030040001000E00D00010010B50121CA
:1023EC00124804F0BBF9124B0124C3F8104800202A
:1023FC0005F01AFB234604220221052005F066FB9A
:10240C00204615F07CF9FFF799FF15F07CF9094B84
:10241C001C70FFF791FF2346074908484022FFF73D
:10242C005FFF074B1860C00F10BD00BF00350A00DE
:10243C0000801442134B0020CC4B00207D860300FF
:10244C00741F0020034BD3F8F000003818BF012094
:10245C00704700BF00ED00E0054A4170D1230370C6
:10246C001378C370090A8170591C117004207047CD
:10247C00124C00202DE9F74F91F80080B8F1040FB1
:10248C0082460F465FD92FF01DF808F10505DFF8DD
:10249C00C0900190EDB24FF6FF760024D9F8F020F1
:1024AC000AB1A54207D8281B18BF012004233B7092
:1024BC0003B0BDE8F08F2FF005F8019BC01A80B275
:1024CC00B0F5FA7F41D8A4B3012C36D0EA1E04F142
:1024DC00010B94425FFA8BFB19D1F4B24FF06042BE
:1024EC00D2F8801ECB0710D5D9F8FC1041F08071C2
:1024FC00C9F8FC10D2F8001E41F48071C2F8001E1D
:10250C00116A0029F0D082F820405C46C6E7AA1E6A
:10251C00944202D1C6F30724E0E76A1E944210D01D
:10252C005444314614F8024C2046FEF73DFF064653
:10253C00D4E75B244FF0010BD0E744464FF0020B7D
:10254C00CCE75D24CAE70020B0E70120AEE700BF6E
:10255C0000ED00E000B5084B91B0186840226946C8
:10256C00FFF7AAFE20B1C2B26946122016F07AF823
:10257C0011B05DF804FB00BF741F0020074A002354
:10258C0012F83310814203D102EBC3035868704731
:10259C000133072BF4D10248704700BF8888030031
:1025AC00C08803002DE9FF410025194FDFF8688032
:1025BC002E46A8B200F018F90446E0B12A46394676
:1025CC0001200CF0EFFB20460CF022FB94F8EE00FF
:1025DC00FFF7D4FF94F8F21094F8F13094F8F0204F
:1025EC00029194F8EF100136CDE90001414601202B
:1025FC00F6B20CF0B9FB0135142DDAD105492B4696
:10260C003246012004B0BDE8F0410CF0ADBB00BF78
:10261C008D860300E3860300938603002DE9FF47B4
:10262C00082201230DEB02010020FEF72BFC02A86F
:10263C0000F0EEF80446002838D11F4901200CF0B8
:10264C0093FB04B0BDE8F0872E235D43661901208F
:10265C0096F83510338E96F834200191718E0091D6
:10266C0049460CF081FB4FF0000896F835305FFAC4
:10267C0088F293420AD8013794F8F120FDB2AA42AD
:10268C00E2D80E4901200CF06FFBDAE705EB820271
:10269C0022440B4B917A1289002918BF5346012012
:1026AC0008490CF061FB08F10108DEE7DFF818902F
:1026BC00DFF818A00027DFE70E87030086870300EA
:1026CC000787030072870300358703000087030028
:1026DC00F0B5BFB0F422002101A82FF0ABFC012310
:1026EC00082201A90020FEF7CDFB0120FEF794FB88
:1026FC008DF8F5000220FEF78FFB9DF8F5501523A1
:10270C00052DC0B28DF8F63006D91C4905220120E2
:10271C000CF02AFB3FB0F0BD0A2802D918490A2256
:10272C00F5E740238DF8F23001AA4FF4007301262F
:10273C00D9B28D4209D801A800F06CF80028E9D173
:10274C00104901200CF010FBE4E7643182F83410DE
:10275C00A3F5C4411186538682F835001446002136
:10276C00CFB2B84204F1040403D801332E329BB229
:10277C00DEE7A180A6710131F2E700BF9987030063
:10278C00C2870300F887030007B5012308226946B6
:10279C000020FEF777FB684600F06AF818B9034989
:1027AC0001200CF0E1FA03B05DF804FB2188030072
:1027BC0070B5084C064600250822214630462FF0FD
:1027CC0001FC28B10135142D04F1F404F4D10024DA
:1027DC00204670BDD4310020024841F21032FF2156
:1027EC002FF028BCD4310020142810B502D90024B5
:1027FC00204610BD054BF42404FB0034FF220821B5
:10280C00204619F065FA0028F2D0F0E7D431002008
:10281C00FFF7CEBF37B50546FFF7CAFF78B1114AAF
:10282C00114901200CF0BEFA28460CF0F1F90F49C1
:10283C0001200CF099FA0024204603B030BD4FF073
:10284C00FF336846CDE90033FFF7B2FF044600289A
:10285C00F2D0F42229462FF0D3FB204608F076FE66
:10286C00EAE700BFC4880300CE880300A42203005B
:10287C0008B5FFF79DFF20B1F422FF212FF0DAFB02
:10288C00012008BD42DE704738B504460D4618F0ED
:10289C0073FA00F0D3FD04F0AEFB2946204615F088
:1028AC00ADFE06492B462246012008F043F9294685
:1028BC002046BDE83840FFF7E5BF00BF00890300A4
:1028CC006D4B2DE9F0416D4C5A68A2655A6AE26570
:1028DC006B4AD2F800122166D2F8042262669A6A18
:1028EC00A266DA6AE2661A6B22675A6B6267DB6B66
:1028FC00A26BA367D4E90F3512F0040F08BF1D4675
:10290C002EF0C4FD002285420346606522655CD32F
:10291C005C4A954259D8AA696264E969A164B4F821
:10292C005810C1F30801062953D157498A4250D394
:10293C0056498A424DD211884DF64262914248D195
:10294C006268C4F89420A268C4F8982040F2017020
:10295C004F4A934238BF13464E4A93423CD3D31A44
:10296C00E3640023C4E91F33C4E92133C4E92333EE
:10297C00484EDFF814C1DFF814E1AE4232D8D4E986
:10298C001FC7D4E92165D4E923124FF0000E013B97
:10299C00DBB2FF2B41D1BEF1000F05D0C4E91FC73C
:1029AC00C4E92165C4E92312B4F85830C3F3080311
:1029BC00DA1E0F2A55D8DFE802F05B3A474A545426
:1029CC005454545154545454543E0022C4E91122CA
:1029DC001D464FF42060BBE71968B1F1CD3FBED165
:1029EC000433BAE756F8042D6245C6D37245C4D2F7
:1029FC00D107C2D5284F002157F8048B9045BCD085
:102A0C000131C9B20629F7D10BB9052301E0013B0D
:102A1C00DBB204EB8301CA67AFE7E0464FF0010E6F
:102A2C00BC4637462E460D4611464246AFE740F6A9
:102A3C000220BDE8F081194BDB6913F0020F40F264
:102A4C00025318BF1846F4E740F60320F1E740F6AE
:102A5C000423B0F5206F08BF1846EAE740F60520BE
:102A6C00E7E7013B40F60722412B98BF1046E0E711
:102A7C0040F60120DDE700BF00ED00E00000002083
:102A8C0000E100E0201A002024030000982003003D
:102A9C009C000020401A00207C00002000200540F3
:102AAC000E2804D00F280CBF0120022070470020F4
:102ABC00704700002DE9FF474FF48073ADF80C30E0
:102ACC0001F0F6FB1848194FDFF86890012103F06C
:102ADC0045FE1748012103F041FE0DF10C080224BC
:102AEC00012618F8013B17F8335007EBC3030122FA
:102AFC00D3F804A028460023514604F0E7FF4946CA
:102B0C005FFA8AF001F0ECFBCDE900660123524636
:102B1C005146284604F094FF012C02D104B0BDE8C4
:102B2C00F0870124DDE700BF404105001489030054
:102B3C0000350A00C92B000008B5FFF7B1FF0228C9
:102B4C0016BF024B0020185C08BD00BF8A4A00204B
:102B5C0008B5FFF7A5FF02281CBF014B195408BD8F
:102B6C008A4A002008B5FFF79BFF022805D0034ACC
:102B7C00135CB3FA83F35B09135408BD8A4A002033
:102B8C0008B5FFF78DFF022811D00A4A12F8303031
:102B9C0030214B4302EBC00007491944436803EB57
:102BAC00C1039B001868B0FA80F0400908BD0020F2
:102BBC00FCE700BF148903001CA0100270B504468A
:102BCC00FFF7DEFF0146002520460E46FFF7D8FF33
:102BDC00B0420146F7D10135052DF5D12046FFF75E
:102BEC00ABFF8842204609D0FFF7B2FF2046FFF723
:102BFC00A3FF0146204609F0BDFA70BDFFF7B2FFF6
:102C0C002046FFF799FF0146204609F0B3FA20460B
:102C1C00FFF7A8FFEAE7000010B505F0B9F9044684
:102C2C0005F0B0F90022012101FA02F3234014D07F
:102C3C001D4B1E4933F81230062B14D040F20722DC
:102C4C0093420DD11A4A1B481468844208D14CF2A5
:102C5C003C33538013880B8015E00132112AE3D1E9
:102C6C00124A13800FE0124A50884FF20F03984219
:102C7C0016D11388B3F5406F28BF4FF4C0630B8097
:102C8C004CF23C335380094B1A8840F201739A4240
:102C9C0001BF094A094BD2E90001C3E9000110BD8B
:102CAC004FF4C063EBE700BF248903004C470020BE
:102CBC000000002007020FF094000020642D00207B
:102CCC00014B1888000A70474C470020014B1888AC
:102CDC00704700BF4C4700202DE9F04F4D4DAB6BBA
:102CEC00D5F850B0D5F840A05A074FBF0027D5F8FB
:102CFC004CB0D5F85480D5F83CA05ABF464FDFF8FD
:102D0C004091DFF84091454A48BFB84613F0080F90
:102D1C00434B18BF1A46B7EB08061CBF7308642157
:102D2C0087B01FBF01FB0B33B3FBF6F39BB20593CC
:102D3C003C49CDF800804B46CDE9017A08BF059699
:102D4C00044601F005F8B3B2CDE900933649059B72
:102D5C001FFA8BF2204600F0FBFFAB6B5B070AD42B
:102D6C009C3E5E4507D16A6D304B9A4203D2304986
:102D7C00204600F0EDFFBA4501D8C24504D22D49DA
:102D8C004A46204600F0E4FF204607F0CDFED5E988
:102D9C001823134337D02849DFF8AC80DFF8AC9008
:102DAC00204600F0C1FF002601272A6E07FA06F321
:102DBC00134207D058F8262013781BB149462046F9
:102DCC0000F0B2FF0136202EEFD1DFF87C80DFF867
:102DDC007C90002601276A6E07FA06F3134209D08D
:102DEC0008EB8603D3F8802013781BB149462046A4
:102DFC0000F09AFF0136122EEDD1204607B0BDE847
:102E0C00F04F00F09FBF0D49204607B0BDE8F04FD2
:102E1C0000F09EBF00000020401A002052890300E1
:102E2C004B8903005A890300888903009C00002009
:102E3C00C1890300ED8903000B8A03003A8A030061
:102E4C0046890300D9A40300F4920300299B0300D4
:102E5C002DE9F8430446FFF739FF40F60523984265
:102E6C000ED8B0F5206F0DD840F20253984217D00F
:102E7C0040F2017398421ED040F2015398420AD09E
:102E8C00BDE8F883A0F602205F4D03281FD8DFE8C9
:102E9C0000F0386598B55D49204600F059FF11E007
:102EAC005B49204600F054FF574B5A6C5949204659
:102EBC0000F04EFF06E0544A5749D2E9252320463C
:102ECC0000F046FF2046BDE8F84307F02DBE5349FD
:102EDC00204600F03DFF95F86C309F0703D5504914
:102EEC00204600F035FF95F86F305E0603D54D494E
:102EFC00204600F02DFF95F96F30002BE2DA4A499D
:102F0C00CAE74A49204600F023FF95F86830980735
:102F1C0004D06A6C3F49204600F01AFF95F96830DE
:102F2C00002B04DA6A6F4249204600F011FFDFF8EB
:102F3C000C81DFF8189100260127AA6E07FA06F318
:102F4C00134207D058F8262013781BB14946204667
:102F5C0000F0FEFE0136082EEFD1B3E735492046CE
:102F6C0000F0F6FE2B496A6C204600F0F1FE95F855
:102F7C006930590703D53049204600F0E9FE95F930
:102F8C006930002B04DA6A6F2949204600F0E0FE14
:102F9C002A4FDFF8B8800826AB6EF340DA0707D566
:102FAC0057F8262013781BB14146204600F0D0FE7E
:102FBC000136102EF0D195F86830002B82D12049C3
:102FCC006AE720491D4FDFF88480204600F0C0FEE0
:102FDC006A6C1049204600F0BBFE1026AB6EF34025
:102FEC00DB0707D557F8262013781BB1414620463E
:102FFC0000F0AEFE01361A2EF0D163E712492046DE
:10300C0000F0A6FE6A6C51E7000000204F8A030016
:10301C008C8A0300BC8A0300D58A0300EF8A030064
:10302C00078B0300418B0300748B0300B08B0300F0
:10303C00D58B0300F98B0300108C03008C920300DA
:10304C00568C0300868C03009F8C0300F18B0300CD
:10305C002DE9F84F164DDFF86080DFF860A0DFF83F
:10306C0060900446002658F8043B2A4651462046F8
:10307C00F7B200F059FE2A78AB460135002AFAD196
:10308C009BF8012092B10B4907F00307032F08BFEF
:10309C004946204600F048FE204607F045FD9BF8C7
:1030AC0001300136002BDED1BDE8F88F4946F0E740
:1030BC00BC930300A0A7030004000020C08C0300F5
:1030CC00A222030000F00CB800F00AB800F008B817
:1030DC0000F006B800F004B800F002B800F000B838
:1030EC0072B61EF0080F09D01EF0040F0DD0DFF8D9
:1030FC0050E0AEE8FF1F6FF002000CE0DFF840E09C
:10310C00AEE8FF1F6FF00E0005E0DFF834E0AEE82C
:10311C00FF1F6FF006006946EFF309828EE8070087
:10312C0086460848084C854501D3A54501D384F350
:10313C000888FFF7C5FB84F308882EF083F900009C
:10314C000400002020110020401A0020FFF7C6BF09
:10315C0010B50B48012103F001FB0A48012103F0D3
:10316C00FDFA002304220821032004F0AFFCBDE883
:10317C001040002304220921032004F0A7BC00BF47
:10318C004041050000350A00064B03EBC0025168B4
:10319C0001228A4013F8301030235943024B5A5005
:1031AC00704700BF889403000CA00046064B03EB4D
:1031BC00C002516801228A4013F830103023594361
:1031CC00024B5A50704700BF889403000CA0004477
:1031DC00074A12F8303002EBC002516801228A40D3
:1031EC0030214B4303F1804303F520439A61704730
:1031FC008894030010B10020FFF7C6BFFFF7D6BFBD
:10320C0037B515467F2D1A464BF2346308BF00259F
:10321C009942044619D17F2241F2020168460823E3
:10322C00FFF7EEFF2849082268462EF0CBFE30B996
:10323C0008237F2241F2F0116846FFF7E1FF6B464D
:10324C0003CB2060616003B030BD41F2F0139942B2
:10325C001DD11E4BD3F8F050D3F8F4000021CBB2A3
:10326C005AB9002AEFD0E0540133D9B207294FEAFA
:10327C00102002F1FF32F4D9E5E76554013104293D
:10328C004FEA152502F1FF32E9D10B46E9E701F4CB
:10329C007043B3F5805F0AD1C1F30B0404F17E6473
:1032AC0002FB054103B0BDE830402EF09BBE01F49B
:1032BC006043B3F5005FC6D1C1F30B0404F17E6427
:1032CC0004F58044ECE700BF389503000081E00F63
:1032DC0070B5054616461C46DBB14BF23463994279
:1032EC0010D1082C28BF08247F2241F2020123466A
:1032FC00FFF786FF0749224628462EF063FE40B9A9
:10330C0041F2F011234632462846BDE87040FFF7E3
:10331C0077BF70BD389503002DE9F8431646C207F8
:10332C0004460F4603D52848DD21FFF7ADFAF30715
:10333C0003D52548DE21FFF7A7FA04F47043B3F553
:10334C00805F21D1C4F30B0404F17E641F4A731E09
:10335C0023449342254603D91B48E321FFF794FAF3
:10336C00DFF8649005EB0608454522D156B3720888
:10337C00394620462DF0EDFF20B3BDE8F843124846
:10338C0040F20F11FFF780BA04F46043B3F5005F0D
:10339C0007D1C4F30B0404F17E6404F58044254684
:1033AC00DEE70948EA21FFF76FFA6FF00F050024FA
:1033BC00D6E715F8013BFF2BD6D0F4214846FFF792
:1033CC0063FAD1E7BDE8F88398940300FF07E00F98
:1033DC00FFF778BE1FB51548154C012103F0BEF957
:1033EC0001221146104603F059FC0421072004F079
:1033FC00B9FD104A1068516801AB03C3906818609E
:10340C000D238DF80C3001A9032320468DF80D30C7
:10341C0004F0FBFF084B04220221C3F880216162F7
:10342C001A60A36A0B43A36204B010BD30253E00A2
:10343C00002005404095030000E100E0014804F045
:10344C00D8BF00BF00200540A52803D102480021A9
:10345C0004F0B9BF704700BF00200540024B18684C
:10346C0000F00100704700BF00200540024A93683D
:10347C00002BFCD1704700BF002005400020704796
:10348C00002070477047000013B572B603F0B3FD0F
:10349C007C4B7D495B698B6000230B76E0204B767F
:1034AC008B764023C876087748778877CB77774B2D
:1034BC008022602481F8202081F8210081F82200EC
:1034CC0081F8232083F8002383F80143202483F818
:1034DC00024383F8034383F8042383F8052383F81A
:1034EC00062383F8072383F8082383F8092383F83A
:1034FC000A2383F80B2383F80C2383F80D2383F81A
:10350C000E2383F80F2383F8102383F8112383F8F9
:10351C00122383F8132383F8142383F8152383F8D9
:10352C00162383F8172383F8182383F8192383F8B9
:10353C001A2383F81B2383F81C2383F81D2383F899
:10354C001E2383F81F2383F8202383F8212383F879
:10355C00224383F8232383F8242383F8252383F839
:10356C00262383F8272383F8282383F8292383F839
:10357C002A2383F82B2383F82C2383F82D2383F819
:10358C002E2383F82F2383F8302383F8312383F8F9
:10359C003203CB6823F4E0631B041B0C43F0BF63C2
:1035AC0043F40133CB604B6943F400734B614B69BB
:1035BC0043F010034B614FF4E0234B6205F0BEFA6D
:1035CC00FFF72AFBEFF30883314A043B4FF0CD3170
:1035DC00934222D22F4A304892B200212EF02AFD7B
:1035EC0062B62E4B01225A642D4BD3F8FC202D4B86
:1035FC00120E15D14AF6E851C3F89011D3F8981170
:10360C0041F00401C3F89811C3F89021D3F8642158
:10361C0042F40052C3F8642104E043F80419D7E7DC
:10362C00012AF3D0204A136A23F4441343F4881379
:10363C001362A2F580420124136843F48073136073
:10364C00184BD3F8A42142F4F842C3F8A4211C610E
:10365C0005F0B8F901F0B6FA002368460093ADF80E
:10366C0004308DF8034003F041FF00F0E3F82DF037
:10367C003BFF00F0EDF80EF071FB0C4805F046FE38
:10368C0002B010BD0000000000ED00E000E100E021
:10369C00E010002014100000A000002000000E40DC
:1036AC000081E00F00300E4000400E40289A0300CD
:1036BC0040F201602DF0C6BEFEF74ABC08B50021F1
:1036CC000B20FEF743FCBDE80840FEF742BC08B1F6
:1036DC00FDF789BAFDF786BA032000F0A7B9000000
:1036EC0008B5FFF7EDFA044B0B289ABF00B203EBB9
:1036FC008000184608BD00BF9296030008B5FFF77E
:10370C00E5FA044BC0F30F22C0B253F8223003EB9E
:10371C00800008BD5C96030010B5FFF7D1FA044693
:10372C00FFF7D4FA10F0FF0005D1012C23D164F07F
:10373C007F04E4B215E0072CF9D801A353F824F068
:10374C006F3700003B3700006D3700007337000007
:10375C0073370000773700007B3700007F3700009D
:10376C000924204610BD0224FBE70324F9E70B24AF
:10377C00F7E70624F5E70446F3E700BF38B50D4636
:10378C00044688BB284B4A1E186050425041013DEC
:10379C0007F054FC032D46D8DFE805F002131E2079
:1037AC0001210846FDF720FAFFF758FE1F4B187051
:1037BC0010B1A520FFF748FEBDE83840012007F006
:1037CC003DBC02210120FDF70FFAFFF747FE50B375
:1037DC00BDE83840FFF74ABE0421F3E7052101207C
:1037EC00BDE83840FDF700BA104B1B781BB11048F0
:1037FC00012104F0E8FD631E58425841013C07F0DA
:10380C0033FC032C0FD8DFE804F002080A0C01206B
:10381C0007F02AFC01210020E2E70221FBE704214A
:10382C00F9E70521F7E738BD74300020404C002043
:10383C0000200540044AD2F81C341B0C1B04C2F8AF
:10384C002434024A1360704700A000408C280020EA
:10385C0008B505F085FA18B104489221FFF714F861
:10386C00BDE808400249034805F02EBBC296030090
:10387C00781D0020082B0020134A1449D2F8283454
:10388C00D2F81C241340124A9BB21360D1F80001E9
:10389C00400502D50868400506D4D1F80001400364
:1038AC0005D50968480302D543F480331360074BF0
:1038BC00D3F80011490006D51B685B0042BF1368A2
:1038CC0043F400331360704700A0004000E100E0B7
:1038DC0074300020012838B504460BD0831E012B10
:1038EC0007D9042824D0052801D103F06FFD00244A
:1038FC0000E0022403F078FB01210546204605F088
:10390C005FFA284603F074FB03F06AFB03F077FBC5
:10391C0005F000FB03F066FB03F066FB0021054697
:10392C00204605F04DFA2846BDE8384003F060BB50
:10393C000324DFE7FFF7CEBF252910B40C4607D8C8
:10394C000B49097889B1E1B25DF8044B14F070BBF6
:10395C00FF2903D95DF8044BFFF7BABC05485DF8A5
:10396C00044B40F29511FEF78FBF5DF8044B704786
:10397C00344C00205797030013B5104C0123002042
:10398C00237007F05DFD40B1002007F059FD20B118
:10399C0000232370492002B010BD02230DF1060054
:1039AC007F220021FFF7C8FFBDF806300020B3F5D9
:1039BC007F7F1CBF20700720EDE700BF344C002038
:1039CC002528F7B504460F46154617D8144A127821
:1039DC0092B1144E327832B1134801934FF4D07136
:1039EC00FEF752FF019B0122327029463A46E0B2A3
:1039FC0014F060FB0023337003B0F0BDFF2806D930
:103A0C001A46294603B0BDE8F040FFF785BC0648CE
:103A1C004FF4D67103B0BDE8F040FEF735BF00BFE0
:103A2C00344C0020134C002057970300024B1B789A
:103A3C000BB114F031BC7047344C0020104430B53D
:103A4C00054602B930BD01F00F030A2B34BF3024F8
:103A5C0037242344013A05F8013D0909D2B2F0E7B5
:103A6C00F0B519B3002820DA2D23B0F1004F1370F4
:103A7C0000D04042012119E0801B8642ECB205F1D6
:103A8C000105F9D914B9BCF1000F05D04D1C303427
:103A9C0054544FF0010CE9B2013B13F0FF0309D170
:103AAC0030305054481CC0B2F0BD0021034F0923E4
:103ABC004FF0000C57F8046B0025DEE7E897030085
:103ACC002DE9F04F97B04FF0000B04AC80468946BF
:103ADC0015469A465E462746297859B9E41BE4B246
:103AEC00224639464846C047002840F0AD80344451
:103AFC00E0B2AAE0252916D0BBF1000F17D1204661
:103B0C0000F8011B044614AB9C42C0F0E280E41B9D
:103B1C00E4B2224639464846C047002840F094801B
:103B2C002644F6B2D4E0BBF1000F00D10135297860
:103B3C00782906D8612907D825295ED03AD80029DA
:103B4C00CCD04FF0000BDEE7A1F16202162AF8D8B8
:103B5C0001A353F822F000BF113C0000973C000079
:103B6C00E33C00004F3B00004F3B00004F3B00008C
:103B7C004F3B00004F3B00004F3B00004F3B000011
:103B8C00E33C00004F3B00004F3B00004F3B00006C
:103B9C00A73C00004F3B00004F3B0000A73C00003F
:103BAC004F3B0000E33C00004F3B00004F3B00004C
:103BBC00F73B0000392916D82F29C2D96A7802F0B0
:103BCC00DF02582A40F0AD80322905F1010B40F09C
:103BDC009C805AF8041B042289B22046FFF72EFF62
:103BEC005D460446ADE75829ABD15AF8041B0222B6
:103BFC00C9B22046FFF722FF02E0204600F8011B65
:103C0C0004469EE7DAF800300293DAF804300193A8
:103C1C00013B4FF0000B0393019B9B4502D10AF132
:103C2C00080A8EE7029B204613F80B100222FFF7BE
:103C3C0005FF14AB984204460DD3C41BE4B22246D4
:103C4C0039464846C04718B1002017B0BDE8F08F80
:103C5C002644F6B23C46039B5B4582BF204620229D
:103C6C0000F8012B14AB88BF04469C420AD3E41B1A
:103C7C00E4B2224639464846C0470028E4D12644DF
:103C8C00F6B23C460BF1010BC6E75346204653F8FF
:103C9C00042B00F8012B9A46B2E7E41BE4B222464F
:103CAC00394648465AF804BBC0470028CCD12644B4
:103CBC00F6B2C4B201301BF80420002AF9D1224616
:103CCC0059464846C0470028BED12644F6B2834622
:103CDC003C46013500E76C29DAF800000AF1040BC8
:103CEC000ED16B78752B14BF0121002101D0642BF0
:103CFC0000D101352246FFF7B3FEDA46044420E733
:103D0C0075290CBF00210121F4E7342909D15AF897
:103D1C00045B0422290C2046FFF790FE0422A9B272
:103D2C005CE74FF0010BEEE60EB403B503AA52F8B4
:103D3C00041B019207F060FAC0B202B05DF804EB0C
:103D4C0003B070470149FFF7EFBF00BFA222030089
:103D5C000EB433B505AA054652F8041B019207F0C0
:103D6C004BFA04462846FFF7EDFFE0B202B0BDE87F
:103D7C00304003B0704708B507F03EFAC0B208BD3A
:103D8C002DE9F04F9A46554B85B01B78DDF83C90E9
:103D9C009DF844B0DDF8508006460F461546002BC2
:103DAC0000F08B80072A00F28A800E9B002B00F01B
:103DBC008680B9F1000F00F08280129BB3F5006F82
:103DCC007DDC012802D1109B002B78D0444B03EBF7
:103DDC0005131B7B002B74D0424C1022002168462B
:103DEC002EF028F904EB45141022002F57D1394638
:103DFC0020462EF01FF943F210036380BBF1000F35
:103E0C0003D1E37843F00303E370364A0E9BCDF8FD
:103E1C0000A002EB451CCCE90193129B013BC3F3C0
:103E2C000A009DF84C30690103F003039B0643EA3A
:103E3C00001E53582C4818404EEA0003012E5350D4
:103E4C0041D11323CCF80C309CE80F000CF1100E70
:103E5C008EE80F00DCF81C20109BCCF814306FF0AF
:103E6C00030161F39F02012FCCF81C2003D1CCF885
:103E7C001890CCF804301A4A290102EB051342F8C9
:103E8C0001800027159A5A6028469F605E7322466F
:103E9C00694603F0A5FE384605B0BDE8F08F002159
:103EAC0020462EF0C7F84FF444736380BBF1000F2B
:103EBC00ABD1E37843F03003A6E70C48ECE70C48B1
:103ECC00EAE70C48E8E7B8F1000FD4D19CF80230CF
:103EDC0068F304138CF80230CDE700BF934B00203D
:103EEC00842600208C2700200F80FFF3028000F036
:103EFC00018000F0078000F038B5124B1B780546A6
:103F0C00DBB1E0B103F07FF80F4A00231146147BBC
:103F1C0054B92B601A0101EB031301258C501D734E
:103F2C0003F077F8204638BD0133082B02F110025C
:103F3C00EDD103F06EF80548F5E70548F3E70548C1
:103F4C00F1E700BF934B002084260020048000F092
:103F5C00028000F0018000F013B503F054F80C4A15
:103F6C000023147B7CB90133082B02F11002F8D129
:103F7C00019003F0EBFD074B01981C7003F049F81E
:103F8C00204602B010BD03F044F80348F9E700BF27
:103F9C0084260020934B0020058000F00D4B1B78ED
:103FAC0010B5044693B1072812D803F02CF80A4B2D
:103FBC0003EB04131A7B2AB100241C7303F029F8B9
:103FCC00204610BD03F025F80448FAE70448F8E74A
:103FDC000448F6E7934B002084260020068000F06E
:103FEC00028000F0018000F013B5164B18680190A8
:103FFC0000238DF8043003F006F8134B1C7824B121
:10400C0003F007F8114802B010BD01221A7003F03A
:10401C0000F80F4B1C731C7783F82C4083F83C4042
:10402C0083F84C4083F85C4083F86C4083F87C4008
:10403C0004230DEB03008DF8073003F0A7FD204699
:10404C00E1E700BF0C980300934B0020038000F0C5
:10405C008426002010B588B00E9C07940D9C069405
:10406C009DF8304005940B9C04949DF828400394D3
:10407C000024CDE9013400920B460246214620462D
:10408C00FFF77EFE08B010BD10B588B00E9C0794EB
:10409C000D9C06949DF8304005940B9C04949DF85F
:1040AC00284003940024CDE9013400920B460246CB
:1040BC0001212046FFF764FE08B010BD0A4A1278B1
:1040CC0008B55AB107280BD8084A02EB00131B7B22
:1040DC0043B1002103F050FD002008BD0448FCE76B
:1040EC000448FAE70448F8E7934B002084260020A4
:1040FC00028000F0018000F0078000F00A4A12787C
:10410C0008B55AB107280BD8084A02EB00131B7BE1
:10411C0043B1012103F030FD002008BD0448FCE749
:10412C000448FAE70448F8E7934B00208426002063
:10413C00028000F0018000F0078000F00A4A12783B
:10414C0008B552B107280AD8084A02EB00131B7BAA
:10415C003BB103F097FD002008BD0548FCE705487E
:10416C00FAE70548F8E700BF934B002084260020AF
:10417C00028000F0018000F0078000F00D4B1B78EE
:10418C0093B1072812D889B10B4B03EB00131B7B9F
:10419C0073B10A4B1A6A012303FA00F010401ABFDC
:1041AC0000200B7008707047054870470548704731
:1041BC0005487047934B00208426002000200E40B9
:1041CC00028000F0018000F0078000F00B4A1278AA
:1041DC0010B50C4662B107280CD859B1084A02EB4D
:1041EC0000131B7B43B103F063FD2060002010BD66
:1041FC000448FCE70448FAE70448F8E7934B00202E
:10420C0084260020028000F0018000F0078000F07E
:10421C002DE9F843DFF86480D8F86070D8F86C307A
:10422C001F4000D5FEE7144CDFF854900126002502
:10423C00374217D02368C8F868609BB1A1686268E0
:10424C000131A16028469847637B012B0AD148B9FC
:10425C0009EB45131A7B60F341021A731A7F60F362
:10426C0041021A770135082D4FEA460604F1100475
:10427C00DED1BDE8F88300BF8426002000200E406C
:10428C008C27002070B5094E0446012504B970BD79
:10429C0094FAA4F0B0FA80F005FA00F324EA0304CF
:1042AC0056F82030002BF1D09847EFE7142B002064
:1042BC0008B5122002F0BEFE28B1084B4FF4802244
:1042CC00C3F880211A600A2002F0B4FE28B1034B17
:1042DC004FF48062C3F880211A6008BD00E100E051
:1042EC0038B504460D4602F08EFE034B43F82450BD
:1042FC00BDE8384002F08DBE142B0020054BD3F8DE
:10430C002804D3F81C24104000F05530C3F82404C2
:10431C00FFF7B8BF00A00040054BD3F82804D3F832
:10432C001C24104000F0AA30C3F82404FFF7AABFE5
:10433C0000A0004038B500F051FB094B094A196840
:10434C0039B113684C69C51AAC4204D323441B1A07
:10435C004B61106003E0001B002310604B6138BD03
:10436C00083000205C2C0020C38870B504460D4634
:10437C003BB904F083FD8542064602D204F098FD59
:10438C0035460F4965610B68ABB90C60A36011E051
:10439C00AD1A9A68656118462AB113465A69AA4241
:1043AC00F6D950B11A4684601346A36013B159690B
:1043BC00491B596170BD0020F0E70C60F5E700BFA8
:1043CC000830002038B50F4B0F4D1C682B685B690B
:1043DC0002201C4400F030FB204600F005FB0B498A
:1043EC002A6800230B70D088800702D501230B703C
:1043FC0038BD9268002AFBD050690344012BF2D9D6
:10440C00F6E700BF5C2C002008300020B94B0020E0
:10441C0070B59DF814500571002516468560049AF8
:10442C00BDF81850C580C0E90336044602600D463D
:10443C0029B941610BB11146984796B1354602F046
:10444C00E2FD0646FFF776FF29462046FFF78CFF74
:10445C00054B1B68A34201D1FFF7B4FF304602F0B5
:10446C00D8FD002070BD00BF083000200C490B683F
:10447C0000227BB183420AD183687AB1936083684E
:10448C001BB15A6941690A445A61002070471A46A7
:10449C009B68EEE70028EFD0022070470B60EEE738
:1044AC000830002070B5154E02F0ADFD347805468D
:1044BC00FCB9134B1C60134B1C60134B1C8000F09D
:1044CC0049FA012000F0B8FA00F004FB0F4B024649
:1044DC00186020B9284602F09CFD232070BD2346AD
:1044EC000B4840F2E7312DF0B3FB0A4B1860012367
:1044FC003370284602F08DFD0020EFE79B4B002027
:10450C00083000205C2C0020D24600200430002013
:10451C0018FCFFFF682C00202DE9F0410546F8B18E
:10452C0002F071FD0F4F0646FFF704FF2846D7F83F
:10453C000080FFF79BFF044628B1304602F069FD6E
:10454C002046BDE8F081A8453B6803D123B1FFF7B5
:10455C0039FFF2E7002BF0D1022000F07BFAECE7F8
:10456C002224EDE70830002070B586B01546059181
:10457C001E46044680B1FFF7CFFFBDF82C300293E6
:10458C009DF828300599CDE9006300222B46204682
:10459C00FFF73EFF06B070BD2220FBE738B50C4696
:1045AC00054698B191B100230B7002F02CFD084B1D
:1045BC001B6801210BB122781AB102F02AFD0020F0
:1045CC0038BDAB4214BF9B682170F3E72220F7E79C
:1045DC0008300020F0B587B01F4600230D46164664
:1045EC008DF817300446A0B10DF11701FFF7D6FF77
:1045FC009DF817207AB9BDF8343002939DF830300D
:10460C002946CDE9007320463346FFF701FF07B07A
:10461C00F0BD2220FBE70320F9E70000F8B50C46BB
:10462C000546C8B1C1B102F0EEFC0646FFF782FEAA
:10463C006B692360134B1B68AB420FD023B9304618
:10464C0002F0E7FC03201CE0596922689B680A44CD
:10465C002260F1E700230FE0222012E00A4D2768C8
:10466C0000F0BCF92B68C01A8742F3D900F0B6F9F8
:10467C002B68226813441B1A3046236002F0C9FCD5
:10468C000020F8BD083000205C2C00202DE9F04102
:10469C000746884602F0B7FC134B1C6805460026FB
:1046AC0024B9284602F0B5FC1B2016E063691E44B1
:1046BC00E388BB4215D10D4C00F090F92368C01A69
:1046CC00B0420CD200F08AF922683244121A284601
:1046DC00C8F8002002F09DFC0020BDE8F08100220B
:1046EC00F5E7A468DCE700BF083000205C2C002054
:1046FC00014B1878704700BFB94B002038B502F059
:10470C0082FC054600F06AF90446284602F081FC5A
:10471C00204638BD70B502F076FC064600F05EF916
:10472C00084B1D8804460120ADB200F0ABF918B15E
:10473C0000F054F901350446304602F06AFC20467C
:10474C00294670BDD2460020014B1868704700BF47
:10475C00043000200A4B1B68834210B50C460CD366
:10476C00084B19684FF47A720023A0FB01012DF05D
:10477C006FFA01302060002010BD2120FCE700BF43
:10478C00682C0020043000200F4B1A6810B59AB129
:10479C00531E4FF47A711342A0FB01010ED1B2FAF1
:1047AC0082F2C2F11F04531CE040D24301FA03F31E
:1047BC00184321FA02F20243104610BD00232DF0DB
:1047CC0047FA0246F8E700BF04300020164B83423C
:1047DC00164B8B4170B5154624D3154B1A680AB38A
:1047EC004FF47A76541EA0FB0603144006FB0131ED
:1047FC0011D1B2FA82F3C3F11F025E1C01FA06F664
:10480C00DB43D04021FA03F330431843D140C5E9D0
:10481C000001204670BD00232DF01AFA0024C5E9D2
:10482C000001F6E72124F4E7EFA7C64B37894100D6
:10483C0004300020C2072DE9F84F04460BD5414A3D
:10484C00138801339BB21380FFF774FD3E4B1B683A
:10485C000BB1FFF7B7FDA30771D5DFF8F49000F0AB
:10486C00BDF8D9F800700646C71B02F0CCFB4FF020
:10487C00000805464246C346334B1C6814B16369B5
:10488C00BB4219D9314B0021B8F1010F197005D178
:10489C0022B1D288022A08BF83F80080002C4AD0AB
:1048AC006369C9F80060DB1B6361FFF78BFD284669
:1048BC00BDE8F84F02F0ADBBC9F8006023463A469C
:1048CC005969914209D8187994F804C0844588BF75
:1048DC001C469B68521A002BF2D1284602F099FB19
:1048EC006569C4F814B002F08EFB82462046FFF7CF
:1048FC00BDFD504602F08DFB23694BB102F083FBEA
:10490C00216982462046FFF72FFD504602F081FBBD
:10491C00E36813B121682046984700F05FF83544EE
:10492C007F1B8246074402F06EFB08F10108054626
:10493C0022465646A0E7022000F08CF8B7E7BDE807
:10494C00F88F00BFD246002008300020224C0020F7
:10495C005C2C002010B51D4B86B01868596803AA52
:10496C0003C2197AD3F8090011700190B3F80D2025
:10497C001748DB7BADF8082001218DF80A300024A4
:10498C0001F0ECFE03A88DF80C408DF8104003F0FC
:10499C004DFB01A901208DF8044003F027FB0D4AC3
:1049AC00536A23F4FF6323F00703536240F2FF734F
:1049BC0013620120946003F033FB074B4FF08042ED
:1049CC00C3F880211A6006B010BD00BF1098030018
:1049DC00A00914000020044000E100E0014B98689D
:1049EC00704700BF00200440114A9368516D9269D2
:1049FC00520704D4CA1A032A01D899420DD1C21AFB
:104A0C00022A98BFD81C0A4BB0F1FF3F38BF0138BF
:104A1C0058655A6A42F004025A62064A137833B156
:104A2C0003490B6D43F002030B65002313707047B1
:104A3C00002004404F2100208207054A00F00103AA
:104A4C00516A48BF43F004030B435362704700BFE5
:104A5C0000200440820700F0010309D5074A012118
:104A6C00117007490A6D22F0030243F004030A6532
:104A7C0003494A6A22EA03034B6270474F21002024
:104A8C0000200440064B01289B6904D0022805D164
:104A9C00C3F38000704703F001007047002070479B
:104AAC000020044010B502F0AEFA094A936904469E
:104ABC00590703F0010003F0070348BF40F0020060
:104ACC001362FFF7B7FE2046BDE8104002F0A1BA12
:104ADC0000200440014801F08DBF00BFA009140064
:104AEC00044B4FF04042DA621A6B22F040421A63D8
:104AFC00704700BF00300E40F0B52D4C2D4A236896
:104B0C0000210846156845B11D68002D41D01D795E
:104B1C001679AE4284BF134601210130052802F1FB
:104B2C000802EFD101B123602348244A0368002115
:104B3C000D46166846B11E68002E2DD01E791779C9
:104B4C00B7423CBF134601210135052D02F1080285
:104B5C00EFD101B103602168194B0A68FAB1DA6927
:104B6C00097922F0FF020A43DA611A6B42F08042A3
:104B7C0001681A630A68124BAAB1DA69097922F43E
:104B8C007F4242EA0122DA611A6B42F000421A6358
:104B9C00F0BD13460121C0E713460121D4E71A6B7F
:104BAC0022F08042E4E71A6B22F00042EFE700BFEC
:104BBC00442C0020B42F0020642C0020DC2F00207B
:104BCC0000300E4008B5184B184801221A7000210D
:104BDC0028222DF02FFA2822154800212DF02AFA30
:104BEC00144A154B1360154A1360154AD2F8B030AD
:104BFC00D2F80421C3F30743FF2B02D0D2B2FF2A11
:104C0C0001D19022192303EB830302EBD3030D4A4A
:104C1C001360FFF765FF0C4B0122C3F880211A606B
:104C2C00FFF76AFF002008BD84490020B42F002044
:104C3C00DC2F0020442C0020C42C0020642C0020ED
:104C4C000081E00F8026002000E100E008B502F0B2
:104C5C00A7FE9FED137A07EE900AF4EEC77AF1EEF9
:104C6C0010FA19D49FED0F7AF4EE477AF1EE10FAA0
:104C7C00C8BFF0EE477A17EE900A2CF069FF0A4B8A
:104C8C0000222CF007FE094B00222CF003FE2CF026
:104C9C00B7FF803840B208BDF0EE477AEBE700BFB3
:104CAC00000000C30000FE420000E03F0000604036
:104CBC00144A38B5136B526A134012D5124B1B6849
:104CCC001D6835B100241C605C60FFF7BFFF2146F6
:104CDC00A8470C4B4FF00042DA62BDE83840FFF7B2
:104CEC000BBF5B00F9D5094B1B681C6834B1002263
:104CFC001A605A60FFF7AAFF0121A047014B4FF041
:104D0C008042E9E700300E40642C0020442C002047
:104D1C00FFF7CEBF38B141B1013AB2F5006F04488C
:104D2C0038BF00207047034870470148704700BFE8
:104D3C00037000F0027000F038B504460D4602F026
:104D4C0062F9A3889BB223B92B6002F062F9064882
:104D5C0038BD638814229BB202FB034408342C60D8
:104D6C0002F057F90020F3E70B7000F0F8B5044699
:104D7C0016460F4602F047F9A388E2889BB29A4286
:104D8C00054605D80023336002F043F91748F8BDF7
:104D9C00238814229BB202FB034308333A4607F1E3
:104DAC00100C174603CF6745186059603A4603F15B
:104DBC000803F6D138681860238814229BB202FBD2
:104DCC000343083333602388E2889BB20133B3FB7F
:104DDC00F2F102FB11339BB22380A38801339BB207
:104DEC002846A38002F015F90020D0E70A7000F0E5
:104DFC0010B50346006893F83230012B0CD102F049
:104E0C008DFF044630B1FFF79FFC24235843B0FBC1
:104E1C00F4F40134204610BD03F046FAF1E700002B
:104E2C0090F83130022B0BD1437E30225343054A8C
:104E3C001A44437F03EBC2039B001868C0B270474F
:104E4C00002070471CA0100213B51D4A002352F815
:104E5C00044B617F81420ED00133042BF7D102B099
:104E6C0010BD0028FBD19DF80730002BF7D06068EF
:104E7C00FFF724F9F3E794F83130022BEFD12046F9
:104E8C00FFF7CEFF637D2075022BE8D194F82E300E
:104E9C0003F0FF02002BE2D160688DF807200DF1C2
:104EAC000701FFF76BF9237D1BB194F82F30002B12
:104EBC00D7D00023606884F82F30FFF71FF9CEE7B6
:104ECC000C30002090F8323053B903680422DA60B9
:104EDC001A699007FCD55A6F42F002025A67704764
:104EEC00012B0CD103685A6C9107FCD404225A6034
:104EFC009A689207FCD55A6D42F002025A657047C7
:104F0C0090F8323053B903680122DA601A69D0077D
:104F1C00FCD55A6F42F001025A677047012B0CD135
:104F2C0003685A6C9107FCD401225A609A68D20724
:104F3C00FCD55A6D42F001025A65704790F8323038
:104F4C003BB903685A6F22F001025A670222DA60F9
:104F5C007047012B09D103685A6C9207FCD45A6D27
:104F6C0022F001025A6502225A6070471049114A18
:104F7C000B7830B52BB9C2E90033C2E902330123F7
:104F8C000B700C4C0023214651F8045B854208D071
:104F9C000133042BF8D1002154F8043B1BB942F81F
:104FAC002100002003E001310429F5D1024830BD75
:104FBC00364C00200C300020027000F010B5044676
:104FCC00FFF712F80021201DFEF796FF014620B9CD
:104FDC0004F10800FEF790FF00B1014810BD00BFBE
:104FEC000E7000F070B5054602F00DF86C6B013CCC
:104FFC0006466C634CB901F0F7FF214605460120CB
:10500C0003F0DEFE284601F0F3FF3046BDE87040A9
:10501C0001F0FFBF13B591F832200B68012A0C4642
:10502C000BD19B6813F0080F20460AD0FFF7DAFF6C
:10503C00022384F8383002B010BD1B6913F0200F26
:10504C00F2E7FFF7D5FE0023CDE900330146034A12
:10505C00234604F13C00FFF7BDFAECE721500000B9
:10506C0070B5044601F0CFFF636B05464BB901F0F8
:10507C00BBFF01210646084603F0A2FE304601F0B4
:10508C00B7FF636B013363632846BDE8704001F0E2
:10509C00C0BF00007FB5012380F82C3090F832306F
:1050AC0093B90C4A036803920022049002924A6856
:1050BC000192012200920A68016980681C33FEF794
:1050CC00E3FF07B05DF804FB012BEAD0002380F866
:1050DC002C30F6E73D6200002DE9F041012380F809
:1050EC002D3090F8323088B004460E466BBB056804
:1050FC00343501F088FF04F13C0807460DF11F011F
:10510C004046FFF74BFA40B99DF81F302BB1404693
:10511C00FFF702FA2046FFF765FF3846012701F03A
:10512C0078FF204684F83870FFF79AFF0E4B0393F4
:10513C00002302937368E16860680494CDE90073FE
:10514C002A463368FEF786FF0BE0012B06D1056873
:10515C002B6843F4005345F8283BCAE7002380F83A
:10516C002D3008B0BDE8F081C151000038B50446BF
:10517C000D4601F048FFA3889BB223B92B60BDE814
:10518C00384001F046BF638814229BB202FB0343F4
:10519C0008332B606388E2889BB20133B3FBF2F1D6
:1051AC0002FB11339BB26380A388013B9BB2A380AB
:1051BC00E5E70000F0B585B0906A03A91446FFF747
:1051CC00BBFD06462046FFF713FE0025014623468D
:1051DC00CDE900551B4A04F13C00FFF7FBF91A4BD3
:1051EC009E421FD0039B1D619D6001F00CFF039A32
:1051FC00D768064627B1D2E9002329462046B8478E
:10520C00A06A03A9FFF7B2FFA06A83889BB263B1BF
:10521C0003A9FFF791FD03992046FFF75DFF304688
:10522C0001F0F7FE012005B0F0BD84F82D3094F8A4
:10523C003230012B01BF2268136823F40053136032
:10524C00EDE700BF215000000B7000F01FB50446C5
:10525C000B46C07DE17E002B33D00123042202F0EB
:10526C0035FC0123217F207E022202F02FFC94F8D2
:10527C003130022B16D1617F607E0023012202F0B7
:10528C0025FC00230422A17FA07E02F01FFC012339
:10529C00627F0193607E0093114602F0D1FB0020E7
:1052AC0004B010BD032BFAD100230122617F607E74
:1052BC0002F00CFC00230422A17FA07E02F006FC6D
:1052CC00EDE71A46039302F001FC039B217F207E3D
:1052DC001A4602F0FBFB94F83120039B022A0FD1F3
:1052EC001A46617F607E02F0F1FB039BA17FA07EDA
:1052FC001A4602F0EBFB039B0193627F0123C9E783
:10530C00032ACCD11A46617F607E039302F0DEFB48
:10531C00039B1A46D0E790F8323013B9036818692A
:10532C007047012B1CD103689B6803F00200DA075D
:10533C0048BF40F00100590748BF40F008001A0769
:10534C0048BF40F02000D90648BF40F040009A0604
:10535C0048BF40F080005B0603D540F40050704716
:10536C00002070472DE9F3410D46044600287FD0FC
:10537C0001F049FE012D064641D1A36A9B889BB2E0
:10538C00002B43D06068FEF7D9FE0023A06A84F896
:10539C002D3083889BB273B101A9FFF7CDFC019925
:1053AC006068394F0831FEF711FF019B1F61A06A3D
:1053BC0083889BB283BB2046FFF7ADFF8304FAD5ED
:1053CC00023D012D10D8A068FEF7B8FE0023606ADC
:1053DC0084F82C3083889BB26BBB94F83130032B50
:1053EC0002D02046FFF7AAFD636B002B02DD20469E
:1053FC00FFF7F8FD304601F00CFE002009E0022D0D
:10540C0038D1636A9B889BB2002BDCD101F001FE82
:10541C001E4802B0BDE8F08101A9FFF7A7FE019B71
:10542C00D3F80C80B8F1000FC1D09B68002239462C
:10543C002046C047BBE76946FFF77EFC0099A06891
:10544C00114D0831FEF7C2FE009B1D61606A838816
:10545C009BB2002BC1D06946FFF788FE009BDF682A
:10546C00002FF3D09B68002229462046B847EDE771
:10547C000748CEE7032DA3D1A36A9B889BB2002BD0
:10548C0080D1636A7AE700BF097000F0087000F001
:10549C00027000F0436A9888C0B270472DE9F3415E
:1054AC000546406A84889846A4B20023CDE90033AF
:1054BC000E4617463CB16946FFF73EFC01A904466F
:1054CC00A868FEF783FE009B73B16CB95A6801990A
:1054DC001B68521A3A60C8F8001033602846FFF770
:1054EC001AFF02B0BDE8F0810023C8F800303B6021
:1054FC00F3E7836A9888C0B270472DE9F3410546FB
:10550C00806A84889846A4B20023CDE900330E4605
:10551C0017463CB16946FFF70FFC01A904466868C1
:10552C00FEF754FE009B73B16CB95A6801991B6865
:10553C00521A3A60C8F8001033602846FFF7EBFEA9
:10554C0002B0BDE8F0810023C8F800303B60F3E7FF
:10555C00007D70472DE9F04104469046FFF7DAFBD9
:10556C000F46054600285CD1092001F071FD064666
:10557C00A26A93889BB213B194F82E3033B394F88B
:10558C00323043BB23681E6906F002061EB9204662
:10559C00FFF798FC0026012384F8303094F8323061
:1055AC001BBBB844474520681AD103699A06FCD541
:1055BC00002E36D194F8323033BB23685A6F22F068
:1055CC0002025A670822DA6035462AE0002ED0D053
:1055DC00FEF71EFECCE7012BD9D123689E68D3E7DA
:1055EC0017F8011B02F0EAFEDCE7012BE0D1B8440E
:1055FC00B845206803D183681B07FCD5D8E717F89A
:10560C00011B02F0BEFBF3E7012BDDD123685D6CBF
:10561C0015F00205FBD15A6D22F002025A650822E0
:10562C005A602846BDE8F08110B5044680B190F868
:10563C002E302BB9FFF7F4FB10B96068FEF73EFD76
:10564C0094F82E300133DBB284F82E30002010BDDC
:10565C000048FCE7027000F010B50446A0B190F8C9
:10566C002E309BB190F82E30012B05D1FFF7D8FBD3
:10567C0010B96068FEF742FD94F82E30013BDBB2A6
:10568C0084F82E30002010BD0148FCE70148FAE7F1
:10569C00027000F0057000F037B590F83150022D13
:1056AC00044618D1A37FA17E407D01229A4030236D
:1056BC005943134B0B4410B903F1806303E00128E9
:1056CC0005D103F1C0631A60002003B030BD217D09
:1056DC000029F6D1F0E7012DF6D1037D73B9112322
:1056EC008DF80730FFF7A0FF2A460DF10701204681
:1056FC00FFF730FF2046FFF7AFFFE5E71323EFE797
:10570C000CA00040F0B5094F04460D460FCF89B0F0
:10571C0001AE0FC697E8070086E80700002C00F0E2
:10572C00CE843DB9024E304609B0F0BD209803003E
:10573C00037000F05422002120462CF07BFC204604
:10574C00FFF714FC06460028EDD12B7C84F8313091
:10575C0001222B6884F83820B94A2360934284F8DC
:10576C00320040F08E81B74B2362B74BE3604FF4AD
:10577C0040232361D5E906230026626216805680F9
:10578C00968084F82C60A3621E805E809E806B687D
:10579C0003936B8984F82D6084F82F60ADF8143076
:1057AC00AB89ADF81230AB7BA8488DF810300121D5
:1057BC00EB7B8DF8163005278DF8117000F0CEFFBD
:1057CC00A348012100F0CAFF206A012100F0C6FFA6
:1057DC0028688DF8046001A902F0B2FDD5F800C06C
:1057EC006B7ADCF878002A7A20F4F85020F01F004D
:1057FC00184340EA02200321CCF878002068CCF84A
:10580C007410DFF83CC2604540F05A81BA4240F255
:10581C007281901F042840F27081A2F10B00B842F3
:10582C0040F26D81A2F11100062808D9A2F11801ED
:10583C00062940F266811F2A14BFFF213946042B2A
:10584C00E17540F26081591F042940F25E81A3F199
:10585C000A01052940F25B81A3F11001062940F2EF
:10586C005881A3F11701072940F25581B3F11F01AB
:10587C0018BF4FF0FF31C9B22176002A58D0012A47
:10588C0056D0022A54D0032A52D0042A50D0052ACA
:10589C004ED0062A00F04981072A00F04881082AD8
:1058AC0000F04781092A00F046810A2A00F0458160
:1058BC000B2A00F050810C2A00F02F810D2A00F0E9
:1058CC002E810E2A00F02D810F2A00F02C81102A37
:1058DC0000F02B81112A00F02481122A00F0238180
:1058EC00132A00F02281142A00F02181152A00F0DD
:1058FC002081162A00F01F81172A00F01E81182A19
:10590C0000F01D81192A00F01C811A2A00F01B815D
:10591C001B2A00F01A811C2A00F019811D2A00F0A4
:10592C0018811E2A00F017811F2A0CBF0722FF22A4
:10593C00E276002B00F0AA83012B00F0A983022B46
:10594C0000F09283032B00F09183042B00F09083E2
:10595C00052B00F08F83062B00F08E83072B00F0B5
:10596C008D83082B00F08C83092B00F08B830A2B82
:10597C0000F070830B2B00F06F830C2B00F06E8308
:10598C000D2B00F06D830E2B00F06C830F2B00F0B1
:10599C007183102B00F06483112B00F06383122BA6
:1059AC0000F06883132B00F06783142B00F06683E0
:1059BC00152B00F06583162B00F06483172B00F079
:1059CC006383182B00F06283192B00F061831A2B70
:1059DC0000F04A831B2B00F049831C2B00F04883FA
:1059EC001D2B00F037831E2B00F036831F3B18BF96
:1059FC004FF0FF33DBB223776B7C6376AB7C637742
:105A0C00EB7CA3762B7DA37701212046FFF71EFCB0
:105A1C00064600287FF487AE01F0F5FA2B7C032BA9
:105A2C00074640F03B832B682A8CDA675A6E42F0AB
:105A3C0004025A665A6F42F030025A670AE000BFFD
:105A4C00000001400042040001000C004041050030
:105A5C0000350A0028684FF0FF3383642B7C032B3E
:105A6C000CBF0521042102F031FC2B684FF440627D
:105A7C00DA602046FFF7A2FA0646384601F0C9FA6A
:105A8C0051E6364A934206D1354B2362354BE360DF
:105A9C004FF450236DE6344A934206D1334B2362C4
:105AAC00334BE3604FF4602363E6324A93427FF456
:105ABC0039AE314B2362314BE3604FF4702358E61F
:105ACC00DFF898C060455BD1052A14D9901F0428D3
:105ADC0013D9A2F10B00052811D9A2F11100062847
:105AEC007FF6ADAEA2F1180106290AD91F2A14BF00
:105AFC00FF210521A3E63146A1E601219FE6022103
:105B0C009DE639469BE60021B6E60121B4E602216A
:105B1C00B2E60321B0E60521AEE6072208E708222B
:105B2C0006E7092204E70A2202E70B2200E70C220F
:105B3C00FEE60D22FCE60E22FAE60F22F8E6002223
:105B4C00F6E60122F4E60222F2E60322F0E6042253
:105B5C00EEE60522ECE60622EAE600BF0004014070
:105B6C000052040001000D00000801400062040016
:105B7C0001000E00000C01400072040001000F0037
:105B8C00DFF814C5604540F03181042A40F2FA80F8
:105B9C00511F032940F2F880A2F10901042940F2B7
:105BAC00F580A2F10E010E2940F2F280A2F11D0146
:105BBC00012940F2EF801F2A14BFFF210A21032B79
:105BCC00E17540F2E980191F032940F2E780A3F147
:105BDC000801042940F2E480A3F10D010E2940F2E2
:105BEC00E180A3F11C01022940F2DE80B3F11F0118
:105BFC0018BF4FF0FF31C9B22176002A00F0DC80CB
:105C0C00012A00F0DB80022A00F0DA80032A00F07F
:105C1C00D980042A00F0D880052A00F0E380062AF7
